:020000040800F2
:1000000000500020A5B10008F5B10008F5B10008C6
:10001000F5B10008F5B10008F5B1000800000000D6
:10002000000000000000000000000000F5B1000822
:10003000F5B1000800000000F5B10008B911000892
:10004000F5B10008F5B10008F5B10008F5B10008F8
:10005000F5B10008F5B10008F5B10008F5B10008E8
:10006000F5B10008F5B10008F5B10008F5B10008D8
:10007000F5B10008F5B10008F5B10008F5B10008C8
:10008000F5B10008F5B10008F5B10008F5B10008B8
:10009000F5B10008F5B10008F5B10008F5B10008A8
:1000A000F5B10008F5B10008F5B10008F5B1000898
:1000B000F5B10008F5B10008458B0008F5B100085E
:1000C000F5B10008F5B10008F5B10008F5B1000878
:1000D000F5B10008F5B10008F5B10008F5B1000868
:1000E000F5B10008F5B1000800000000F5B1000806
:1000F000F5B10008F5B10008F5B10008F5B1000848
:10010000F5B10008F5B10008F5B10008F5B1000837
:10011000F5B10008F5B10008F5B10008F5B1000827
:10012000F5B10008F5B10008F5B10008F5B1000817
:1001300010B5054C237833B9044B13B10448AFF321
:1001400000800123237010BD780000200000000013
:1001500070BA000808B5034B1BB103490348AFF35D
:10016000008008BD000000007C00002070BA00087C
:1001700081F0004102E000BF83F0004330B54FEA58
:1001800041044FEA430594EA050F08BF90EA020FC5
:100190001FBF54EA000C55EA020C7FEA645C7FEA58
:1001A000655C00F0E2804FEA5454D4EB5555B8BF7B
:1001B0006D420CDD2C4480EA020281EA030382EAEC
:1001C000000083EA010180EA020281EA0303362D7E
:1001D00088BF30BD11F0004F4FEA01314FF4801C51
:1001E0004CEA113102D0404261EB410113F0004F63
:1001F0004FEA03334CEA133302D0524263EB43031A
:1002000094EA050F00F0A780A4F10104D5F1200EB7
:100210000DDB02FA0EFC22FA05F2801841F1000112
:1002200003FA0EF2801843FA05F359410EE0A5F1E6
:1002300020050EF1200E012A03FA0EFC28BF4CF017
:10024000020C43FA05F3C01851EBE37101F00045CD
:1002500007D54FF0000EDCF1000C7EEB00006EEBDA
:100260000101B1F5801F1BD3B1F5001F0CD3490864
:100270005FEA30004FEA3C0C04F101044FEA4452BB
:1002800012F5800F80F09A80BCF1004F08BF5FEA42
:10029000500C50F1000041EB045141EA050130BD22
:1002A0005FEA4C0C404141EB010111F4801FA4F1C5
:1002B0000104E9D191F0000F04BF01460020B1FA1A
:1002C00081F308BF2033A3F10B03B3F120020CDA52
:1002D0000C3208DD02F1140CC2F10C0201FA0CF030
:1002E00021FA02F10CE002F11402D8BFC2F1200C95
:1002F00001FA02F120FA0CFCDCBF41EA0C0190404B
:10030000E41AA2BF01EB0451294330BD6FEA040493
:100310001F3C1CDA0C340EDC04F11404C4F120027E
:1003200020FA04F001FA02F340EA030021FA04F390
:1003300045EA030130BDC4F10C04C4F1200220FAE7
:1003400002F001FA04F340EA0300294630BD21FA25
:1003500004F0294630BD94F0000F83F4801306BFEB
:1003600081F480110134013D4EE77FEA645C18BFDF
:100370007FEA655C29D094EA050F08BF90EA020F76
:1003800005D054EA000C04BF1946104630BD91EA6E
:10039000030F1EBF0021002030BD5FEA545C05D171
:1003A0004000494128BF41F0004130BD14F58004B0
:1003B0003CBF01F5801130BD01F0004545F0FE4124
:1003C00041F470014FF0000030BD7FEA645C1ABF59
:1003D000194610467FEA655C1CBF0B46024650EA90
:1003E000013406BF52EA033591EA030F41F40021BC
:1003F00030BD00BF90F0000F04BF0021704730B542
:100400004FF4806404F132044FF000054FF0000116
:1004100050E700BF90F0000F04BF0021704730B5D7
:100420004FF4806404F1320410F0004548BF4042AC
:100430004FF000013EE700BF42004FEAE2014FEA01
:1004400031014FEA02701FBF12F07F4393F07F4FDC
:1004500081F06051704732F07F4208BF704793F0DF
:100460007F4F04BF41F40021704730B54FF46074F2
:1004700001F0004521F000411CE700BF50EA0102F5
:1004800008BF704730B54FF000050AE050EA01029E
:1004900008BF704730B511F0004502D5404261EB0E
:1004A00041014FF4806404F132045FEA915C3FF44F
:1004B000D8AE4FF003025FEADC0C18BF03325FEAEC
:1004C000DC0C18BF033202EBDC02C2F1200300FA9D
:1004D00003FC20FA02F001FA03FE40EA0E0021FAC2
:1004E00002F11444BDE600BF70B54FF0FF0C4CF4B0
:1004F000E06C1CEA11541DBF1CEA135594EA0C0F62
:1005000095EA0C0F00F0DEF82C4481EA030621EA9C
:100510004C5123EA4C5350EA013518BF52EA0335D7
:1005200041F4801143F4801338D0A0FB02CE4FF089
:100530000005E1FB02E506F00042E0FB03E54FF0B9
:100540000006E1FB03569CF0000F18BF4EF0010EB1
:10055000A4F1FF04B6F5007F64F5407404D25FEAAD
:100560004E0E6D4146EB060642EAC62141EA555160
:100570004FEAC52040EA5E504FEACE2EB4F1FD0CA2
:1005800088BFBCF5E06F1ED8BEF1004F08BF5FEA20
:10059000500E50F1000041EB045170BD06F00046D2
:1005A00046EA010140EA020081EA0301B4EB5C047F
:1005B000C2BFD4EB0C0541EA045170BD41F4801177
:1005C0004FF0000E013C00F3AB8014F1360FDEBF9C
:1005D000002001F0004170BDC4F10004203C35DA78
:1005E0000C341BDC04F11404C4F1200500FA05F3FB
:1005F00020FA04F001FA05F240EA020001F000429C
:1006000021F0004110EBD37021FA04F642EB060111
:100610005EEA430E08BF20EAD37070BDC4F10C043B
:10062000C4F1200500FA04F320FA05F001FA04F2FF
:1006300040EA020001F0004110EBD37041F10001EB
:100640005EEA430E08BF20EAD37070BDC4F12005F6
:1006500000FA05F24EEA020E20FA04F301FA05F25E
:1006600043EA020321FA04F001F0004121FA04F206
:1006700020EA020000EBD3705EEA430E08BF20EAD6
:10068000D37070BD94F0000F0FD101F00046400010
:1006900041EB010111F4801F08BF013CF7D041EA92
:1006A000060195F0000F18BF704703F00046520096
:1006B00043EB030313F4801F08BF013DF7D043EA67
:1006C0000603704794EA0C0F0CEA135518BF95EA1D
:1006D0000C0F0CD050EA410618BF52EA4306D1D1A4
:1006E00081EA030101F000414FF0000070BD50EAC3
:1006F000410606BF1046194652EA430619D094EA4D
:100700000C0F02D150EA013613D195EA0C0F05D136
:1007100052EA03361CBF104619460AD181EA03018A
:1007200001F0004141F0FE4141F470014FF0000042
:1007300070BD41F0FE4141F4780170BD70B54FF0DD
:10074000FF0C4CF4E06C1CEA11541DBF1CEA13555D
:1007500094EA0C0F95EA0C0F00F0A7F8A4EB05043F
:1007600081EA030E52EA03354FEA013100F0888036
:100770004FEA03334FF0805545EA131343EA1263FF
:100780004FEA022245EA111545EA10654FEA0026B4
:100790000EF000419D4208BF964244F1FD0404F56D
:1007A000407402D25B084FEA3202B61A65EB0305C9
:1007B0005B084FEA32024FF480104FF4002CB6EB86
:1007C000020E75EB030E22BFB61A754640EA0C0006
:1007D0005B084FEA3202B6EB020E75EB030E22BF46
:1007E000B61A754640EA5C005B084FEA3202B6EB87
:1007F000020E75EB030E22BFB61A754640EA9C0046
:100800005B084FEA3202B6EB020E75EB030E22BF15
:10081000B61A754640EADC0055EA060E18D04FEAD3
:10082000051545EA16754FEA06164FEAC30343EA73
:1008300052734FEAC2025FEA1C1CC0D111F4801F40
:100840000BD141EA00014FF000004FF0004CB6E739
:1008500011F4801F04BF01430020B4F1FD0C88BFD8
:10086000BCF5E06F3FF6AFAEB5EB030C04BFB6EBE3
:10087000020C5FEA500C50F1000041EB045170BDD6
:100880000EF0004E4EEA113114EB5C04C2BFD4EB03
:100890000C0541EA045170BD41F480114FF0000E87
:1008A000013C90E645EA060E8DE60CEA135594EA03
:1008B0000C0F08BF95EA0C0F3FF43BAF94EA0C0F06
:1008C0000AD150EA01347FF434AF95EA0C0F7FF47B
:1008D00025AF104619462CE795EA0C0F06D152EACF
:1008E00003353FF4FDAE1046194622E750EA4106B3
:1008F00018BF52EA43067FF4C5AE50EA41047FF4C4
:100900000DAF52EA43057FF4EBAE12E74FF0FF3C28
:1009100006E000BF4FF0010C02E000BF4FF0010CF9
:100920004DF804CD4FEA410C7FEA6C5C4FEA430C72
:1009300018BF7FEA6C5C1BD001B050EA410C0CBFC1
:1009400052EA430C91EA030F02BF90EA020F002023
:10095000704710F1000F91EA030F58BF994208BF8A
:1009600090422CBFD8176FEAE37040F00100704747
:100970004FEA410C7FEA6C5C02D150EA013C07D19E
:100980004FEA430C7FEA6C5CD6D152EA033CD3D0E9
:100990005DF8040B704700BF8446104662468C46E3
:1009A0001946634600E000BF01B5FFF7B7FF002816
:1009B00048BF10F1000F01BD4DF808EDFFF7F4FF3F
:1009C0000CBF012000205DF808FB00BF4DF808EDCA
:1009D000FFF7EAFF34BF012000205DF808FB00BFED
:1009E0004DF808EDFFF7E0FF94BF012000205DF80F
:1009F00008FB00BF4DF808EDFFF7CEFF94BF0120C4
:100A000000205DF808FB00BF4DF808EDFFF7C4FFBC
:100A100034BF012000205DF808FB00BF4A0011D25E
:100A200012F5001211D20DD56FF47873B3EB625248
:100A30000ED44FEAC12343F0004343EA505323FA54
:100A400002F070474FF00000704750EA013002D1C9
:100A50004FF0FF3070474FF0000070474FEA4102FF
:100A6000B2F1E04324BFB3F5001CDCF1FE5C0DD90C
:100A700001F0004C4FEAC0024CEA5070B2F1004F56
:100A800040EB830008BF20F00100704711F0804F59
:100A900021D113F13872BCBF01F00040704741F41E
:100AA00080114FEA5252C2F11802C2F1200C10FA22
:100AB0000CF320FA02F018BF40F001004FEAC12306
:100AC0004FEAD32303FA0CFC40EA0C0023FA02F3AA
:100AD0004FEA4303CCE77FEA625307D150EA013380
:100AE0001EBF4FF0FE4040F44000704701F0004050
:100AF00040F0FE4040F40000704700BF80F000402E
:100B000002E000BF81F0004142001FBF5FEA4103E5
:100B100092EA030F7FEA226C7FEA236C6AD04FEAE5
:100B20001262D2EB1363C1BFD2184140484041402A
:100B3000B8BF5B42192B88BF704710F0004F40F4DC
:100B4000000020F07F4018BF404211F0004F41F4F8
:100B5000000121F07F4118BF494292EA030F3FD0C4
:100B6000A2F1010241FA03FC10EB0C00C3F12003D7
:100B700001FA03F100F0004302D5494260EB400066
:100B8000B0F5000F13D3B0F1807F06D340084FEAD1
:100B9000310102F10102FE2A51D2B1F1004F40EBC6
:100BA000C25008BF20F0010040EA0300704749002E
:100BB00040EB000010F4000FA2F10102EDD1B0FAF9
:100BC00080FCACF1080CB2EB0C0200FA0CF0AABFEE
:100BD00000EBC25052421843BCBFD040184370478C
:100BE00092F0000F81F4000106BF80F40000013292
:100BF000013BB5E74FEA41037FEA226C18BF7FEA69
:100C0000236C21D092EA030F04D092F0000F08BFAA
:100C10000846704790EA010F1CBF0020704712F091
:100C20007F4F04D1400028BF40F00040704712F1D0
:100C300000723CBF00F50000704700F0004343F035
:100C4000FE4040F4000070477FEA226216BF08466B
:100C50007FEA23630146420206BF5FEA412390EA2E
:100C6000010F40F4800070474FF0000304E000BF24
:100C700010F0004348BF40425FEA000C08BF7047D5
:100C800043F0964301464FF000001CE050EA010299
:100C900008BF70474FF000030AE000BF50EA0102AE
:100CA00008BF704711F0004302D5404261EB41019B
:100CB0005FEA010C02BF84460146002043F0B643C0
:100CC00008BFA3F18053A3F50003BCFA8CF2083AE5
:100CD000A3EBC25310DB01FA02FC634400FA02FCEE
:100CE000C2F12002BCF1004F20FA02F243EB0200F5
:100CF00008BF20F00100704702F1200201FA02FC57
:100D0000C2F1200250EA4C0021FA02F243EB020049
:100D100008BF20EADC7070474FF0FF0C1CEAD0528D
:100D20001EBF1CEAD15392EA0C0F93EA0C0F6FD04E
:100D30001A4480EA010C400218BF5FEA41211ED02C
:100D40004FF0006343EA501043EA5111A0FB013118
:100D50000CF00040B1F5000F3EBF490041EAD371ED
:100D60005B0040EA010062F17F02FD2A1DD8B3F169
:100D7000004F40EBC25008BF20F00100704790F0D8
:100D8000000F0CF0004C08BF49024CEA502040EA2A
:100D900051207F3AC2BFD2F1FF0340EAC2507047F0
:100DA00040F400004FF00003013A5DDC12F1190F2E
:100DB000DCBF00F000407047C2F10002410021FAA0
:100DC00002F1C2F1200200FA02FC5FEA310040F1B8
:100DD000000053EA4C0308BF20EADC70704792F031
:100DE000000F00F0004C02BF400010F4000F013A69
:100DF000F9D040EA0C0093F0000F01F0004C02BF64
:100E0000490011F4000F013BF9D041EA0C018FE7D2
:100E10000CEAD15392EA0C0F18BF93EA0C0F0AD0D8
:100E200030F0004C18BF31F0004CD8D180EA0100FE
:100E300000F00040704790F0000F17BF90F0004F97
:100E4000084691F0000F91F0004F14D092EA0C0F79
:100E500001D142020FD193EA0C0F03D14B0218BF0C
:100E6000084608D180EA010000F0004040F0FE4052
:100E700040F40000704740F0FE4040F440007047EE
:100E80004FF0FF0C1CEAD0521EBF1CEAD15392EA6D
:100E90000C0F93EA0C0F69D0A2EB030280EA010C5D
:100EA00049024FEA402037D04FF0805343EA1111F6
:100EB00043EA10130CF000408B4238BF5B0042F154
:100EC0007D024FF4000C8B4224BF5B1A40EA0C00F9
:100ED000B3EB510F24BFA3EB510340EA5C00B3EB2B
:100EE000910F24BFA3EB910340EA9C00B3EBD10F19
:100EF00024BFA3EBD10340EADC001B0118BF5FEA6B
:100F00001C1CE0D1FD2A3FF650AF8B4240EBC25093
:100F100008BF20F0010070470CF0004C4CEA502054
:100F20007F32C2BFD2F1FF0340EAC250704740F4A3
:100F300000004FF00003013A37E792F0000F00F095
:100F4000004C02BF400010F4000F013AF9D040EA13
:100F50000C0093F0000F01F0004C02BF490011F4A7
:100F6000000F013BF9D041EA0C0195E70CEAD1539F
:100F700092EA0C0F08D142027FF47DAF93EA0C0F86
:100F80007FF470AF084676E793EA0C0F04D14B026A
:100F90003FF44CAF08466EE730F0004C18BF31F01C
:100FA000004CCAD130F000427FF45CAF31F0004316
:100FB0007FF43CAF5FE700BF4FF0FF3C06E000BFAF
:100FC0004FF0010C02E000BF4FF0010C4DF804CDD2
:100FD0004FEA40024FEA41037FEA226C18BF7FEAE2
:100FE000236C11D001B052EA530C18BF90EA010FE4
:100FF00058BFB2EB030088BFC81738BF6FEAE17073
:1010000018BF40F0010070477FEA226C02D15FEA0E
:10101000402C05D17FEA236CE4D15FEA412CE1D07A
:101020005DF8040B704700BF844608466146FFE741
:101030000FB5FFF7C9FF002848BF10F1000F0FBD23
:101040004DF808EDFFF7F4FF0CBF012000205DF81C
:1010500008FB00BF4DF808EDFFF7EAFF34BF0120A1
:1010600000205DF808FB00BF4DF808EDFFF7E0FF3A
:1010700094BF012000205DF808FB00BF4DF808ED8B
:10108000FFF7D2FF94BF012000205DF808FB00BFEE
:101090004DF808EDFFF7C8FF34BF012000205DF8D0
:1010A00008FB00BF42000ED2B2F1FE4F0BD34FF04F
:1010B0009E03B3EB126209D44FEA002343F00043CE
:1010C00023FA02F070474FF00000704712F1610FF1
:1010D00001D1420202D14FF0FF3070474FF00000C3
:1010E000704700BF80B500AF00F002F800BF80BDC0
:1010F00080B594B000AF0123BB624FF48033FB6234
:1011000000233B630123BB6302237B644FF48033E2
:10111000BB644FF4E013FB6407F12803184608F0A2
:1011200029FC0346002B03D02521214809F0D3FFD9
:101130000F237B610223BB610023FB614FF48063BB
:101140003B6200237B6207F114030221184608F07A
:1011500091FE0346002B03D03321154809F0BBFF55
:1011600002237B604FF40043FB603B1D184609F0EF
:1011700039F80346002B03D03A210D4809F0ABFFA4
:1011800008F0C4FF02460B4BA3FB02239B09184641
:1011900008F031F8042008F03BF8002200214FF05D
:1011A000FF3007F0FEFF00BF5037BD4680BD00BFD7
:1011B00088BA0008D34D621080B500AF07F0DCFE9E
:1011C00008F042F800BF80BD80B485B000AF154B79
:1011D0009B69144A43F001039361124B9B6903F02E
:1011E0000103BB60BB680F4BDB690E4A43F08053C1
:1011F000D3610C4BDB6903F080537B607B680A4B47
:101200005B68FB60FB6823F0E063FB60FB6843F016
:101210008073FB60044AFB68536000BF1437BD460F
:1012200080BC7047001002400000014090B58BB0B8
:1012300000AFF860B9607A6008F082F800237B6143
:10124000FB68FB61BA68FB68D31A9B0A3B62002308
:101250003B6107F1100207F114031146184608F02C
:1012600057F900237B6212E07B6A7A6813441B788B
:10127000DBB24FF000041A462346F968022007F05B
:10128000EFFFFB680433FB607B6A01337B627B6AA0
:10129000042BE9DD08F07AF800BF2C37BD4690BD7D
:1012A00080B485B000AF78607B681B68FB60FB682A
:1012B00018461437BD4680BC704780B500AF00F0BB
:1012C00003F800BF80BD000080B588B000AF3D4B83
:1012D0009B693C4A43F0100393613A4B9B6903F0CE
:1012E0001003FB60FB68374B9B69364A43F02003D1
:1012F0009361344B9B6903F02003BB60BB68314BA7
:101300009B69304A43F0040393612E4B9B6903F0C1
:1013100004037B607B682B4B9B692A4A43F00803DC
:101320009361284B9B6903F008033B603B680022F4
:101330004FF40051244808F004FB00224FF4FC61F4
:10134000224808F0FEFA00224FF47041204808F0CD
:10135000F8FA4FF400533B6101237B610223FB61E8
:1013600007F110031946184808F07AF94FF4FC63A6
:101370003B6101237B610223FB6107F110031946E6
:10138000124808F06DF94FF440633B6100237B6124
:101390000023BB6107F1100319460D4808F060F9FE
:1013A0004FF470433B6101237B610223FB6107F132
:1013B00010031946064808F053F900BF2037BD4610
:1013C00080BD00BF00100240001001400008014035
:1013D000000C014080B500AF00222021384808F001
:1013E000B0FA00224021364808F0ABFA00228021F2
:1013F000334808F0A6FA0A2007F016FC0122202143
:101400002F4808F09EFA0A2007F00EFC4FF4806186
:101410002C4808F07FFA0346012B01D101234CE050
:101420004FF40061274808F075FA0346012B01D1FB
:10143000022342E000222021214808F082FA012202
:1014400040211F4808F07DFA0A2007F0EDFB4FF419
:1014500080611C4808F05EFA0346012B01D103238A
:101460002BE04FF40061174808F054FA0346012BB3
:1014700001D1042321E000224021114808F061FA43
:10148000012280210E4808F05CFA0A2007F0CCFB0C
:101490004FF480610B4808F03DFA0346012B01D15F
:1014A00005230AE04FF40061064808F033FA0346CA
:1014B000012B01D1062300E00023184680BD00BFA8
:1014C00000080140000C014080B500AF534B9B78F1
:1014D000002B03D0514B9B78012B05D1FFF77AFFEE
:1014E00003461A464E4B1A704C4B9B78012B25D164
:1014F0004A4B5A784A4B1B789A420AD0484B1A7882
:10150000464B5A70454B00229A70444B0022DA70C9
:1015100081E0424B9B88013B9AB2404B9A803F4B03
:101520009B88002B77D13E4B1A783C4B1A703B4B73
:1015300002229A70394B0122DA706CE0374B9B78AB
:10154000022B68D0354B5A78354B1B789A4245D0E0
:10155000334B1A78314B5A70314B1B78052B03D023
:101560002F4B1B78062B03D12C4B0D229A801EE0AB
:101570002B4B1B78042B03D0294B1B78022B03D158
:10158000264B0A229A8012E0254B1B78002B03D1B0
:10159000224B00229A800AE0214B1B78012B03D1B9
:1015A0001E4B05229A8002E01C4B0A229A801C4B9B
:1015B0001B78012B02D0002001F0CCF8174B9B8840
:1015C000002B03D0154B01229A7024E0134B00220C
:1015D0009A70134B1A78114B1A701CE0104B1B7841
:1015E000002B18D00E4B1B78012B14D00C4B1B7802
:1015F000032B10D00A4B1B78022B06D1074B1E225F
:101600009A80064B01229A7005E0044B16229A80BC
:10161000024B01229A7000BF80BD00BF94000020E1
:101620005001002080B400AF024BDB781846BD4665
:1016300080BC70479400002080B483B000AF0346A4
:10164000FB71074AFB79D370054BDB78022B02D183
:10165000034B00229A7000BF0C37BD4680BC704718
:101660009400002080B400AF024B1B781846BD46A2
:1016700080BC70479400002080B500AF0C4B186808
:101680000C4B1B880122194608F05BF90A23184607
:1016900000F07AF9064B1868064B1B8800221946A1
:1016A00008F04FF93C2000F06FF900BF80BD00BF8B
:1016B0009C000020A200002080B582B000AF03464D
:1016C000FB71FB79002B08D00A4B18680A4B1B886A
:1016D0000122194608F035F907E0064B1868064B59
:1016E0001B880022194608F02CF900BF0837BD46B8
:1016F00080BD00BF9C000020A000002080B584B009
:1017000000AF0346FB71FB7903F00F03FB73FB791A
:101710001B09BB73614B1B78012B5AD1604B1868B6
:10172000604B1988FB7B03F00103DBB21A4608F01B
:1017300008F95B4B18685C4B1988FB7B03F00203CC
:10174000DBB21A4608F0FDF8554B1868574B19885C
:10175000FB7B03F00403DBB21A4608F0F2F8504BAF
:101760001868534B1988FB7B03F00803DBB21A4659
:1017700008F0E7F84F4B18684F4B1988BB7B03F014
:101780000103DBB21A4608F0DCF84A4B18684B4BF1
:101790001988BB7B03F00203DBB21A4608F0D1F8CC
:1017A000444B1868464B1988BB7B03F00403DBB23B
:1017B0001A4608F0C6F83F4B1868424B1988BB7BA5
:1017C00003F00803DBB21A4608F0BBF8FFF754FF3A
:1017D0005FE0324B1B78022B5BD1364B1868364BDF
:1017E0001988BB7B03F00103DBB21A4608F0A9F8A5
:1017F000304B1868314B1988BB7B03F00203DBB216
:101800001A4608F09EF82B4B18682D4B1988BB7BA5
:1018100003F00403DBB21A4608F093F8254B18686E
:10182000284B1988BB7B03F00803DBB21A4608F08B
:1018300088F8FFF721FF1F4B18681F4B1988FB7BA7
:1018400003F00103DBB21A4608F07BF8194B186865
:101850001A4B1988FB7B03F00203DBB21A4608F02F
:1018600070F8144B1868164B1988FB7B03F00403BF
:10187000DBB21A4608F065F80E4B1868114B198850
:10188000FB7B03F00803DBB21A4608F05AF8FFF7B7
:10189000F3FE00BF1037BD4680BD00BF0000002032
:1018A000A4000020A8000020AA000020AC00002016
:1018B000AE000020B0000020B4000020B6000020E0
:1018C000B8000020BA00002090B589B000AF3A1DE2
:1018D00007F108031146184608F036FC7B69002B17
:1018E00003D108F01DFCF86104E008F019FC034680
:1018F0005B00FB61F869FEF77DFD1FA3D3E90023C0
:10190000FEF7F2FD03460C4618462146FFF786F81F
:101910000346FB611A4BDB69194A43F00203D361AA
:10192000184B1B68174A23F010031360154B1B68F4
:10193000144A23F001031360124B1B68114A23F071
:10194000040313600F4B1B680E4A43F00803136037
:101950000C4AFB69013B93620A4B0922DA62094B8C
:1019600001225A61074B1B69064A23F001031361E8
:1019700000BF2437BD4690BD8DEDB5A0F7C6B03E83
:10198000001002400004004080B483B000AF7860D3
:101990000D4A7B68013BD3620B4B1B690A4A23F05B
:1019A00001031361084B1B68074A43F001031360EE
:1019B00000BF054B1B6903F00103012BF9D100BFE8
:1019C0000C37BD4680BC70470004004080B582B033
:1019D00000AF0346FB710020FFF76EFEFB7918464F
:1019E000FFF78CFE00BF0837BD4680BD80B582B0D2
:1019F00000AF0346FB710120FFF75EFEFB7918463E
:101A0000FFF77CFE00BF0837BD4680BD80B584B0BF
:101A100000AF0346FB71FB7903F00F03FB7300205B
:101A2000FFF74AFE184B1868184B1988FB7B03F028
:101A30000103DBB21A4607F084FF134B1868144BFE
:101A40001988FB7B03F00203DBB21A4607F079FF2B
:101A50000D4B18680F4B1988FB7B03F00403DBB2B6
:101A60001A4607F06EFF084B18680B4B1988FB7B72
:101A700003F00803DBB21A4607F063FFFFF7FCFD33
:101A800000BF1037BD4680BDB0000020B40000206C
:101A9000B6000020B8000020BA00002080B584B055
:101AA00000AFF8607B600B467B8113463B81274A81
:101AB000FB681360264A7B891380264A3B89138082
:101AC000254A7B681360254A3B8B1380244ABB8BD5
:101AD0001380244A3B8C1380234ABB8C1380FFF76E
:101AE000F3FE224B02221A70214B28221A70142076
:101AF00007F05EFA0320FFF789FF052007F058FA88
:101B00000320FFF783FF012007F052FA0320FFF7BD
:101B10007DFF012007F04CFA0220FFF777FF01203C
:101B200007F046FA0F20FFF751FF0120FFF74EFFA5
:101B3000032007F03DFA2820FFF748FF032007F0B5
:101B400037FA00BF1037BD4680BD00BF9C000020A3
:101B5000A0000020A2000020B0000020B40000205F
:101B6000B6000020B8000020BA00002000000020CD
:101B70000200002080B584B000AF78600023FB73C2
:101B800009E0FB7B7A6813441B781846FFF72EFFA9
:101B9000FB7B0133FB73FB7B0F2B05D8FB7B7A6848
:101BA00013441B78002BECD100BF1037BD4680BD1D
:101BB00080B584B000AF03460A46FB711346BB7183
:101BC000BB79013BDBB203F00F03FB73FB79012B05
:101BD00008D1FB7B63F07F03FB73FB7B1846FFF7A9
:101BE000F5FE07E0FB7B63F03F03FB73FB7B1846CE
:101BF000FFF7ECFE00BF1037BD4680BD80B500AFDB
:101C0000064B1B7823F00203DAB2044B1A70034B25
:101C10001B781846FFF7DAFE00BF80BD01000020E8
:101C200080B500AF0120FFF7D1FE032007F0C0F917
:101C300000BF80BD80B500AF064B1B7823F00103C9
:101C4000DAB2044B1A70034B1B781846FFF7BEFE3E
:101C500000BF80BD0100002080B500AF064B1B789F
:101C600043F00103DAB2044B1A70034B1B78184699
:101C7000FFF7ACFE00BF80BD0100002080B586B03C
:101C800000AF786007F108037A680649184609F042
:101C9000DDFA07F108031846FFF76CFF00BF18379D
:101CA000BD4680BDB8BA000880B584B004AF4FF41B
:101CB000004303934FF4804302934FF40053019386
:101CC0004FF480530093054B4FF480624FF48071C2
:101CD0000348FFF7E3FE00BFBD4680BD000C014096
:101CE0000008014080B500AFFFF788FFFFF7A2FFB3
:101CF000FFF796FF01210120FFF75AFF0648FFF783
:101D000039FF01210220FFF753FF0448FFF732FF9C
:101D1000FFF790FF00BF80BDBCBA0008CCBA000836
:101D200098B500AF00F0AEFC0346012B40F0BC813B
:101D300000F0B2FC03464FF000011846FFF79EF991
:101D40000346002B13D000F0A7FC03461846FEF70D
:101D500073FB4FF00002B94BFEF710FA03460C4636
:101D600018462146FEF75AFE03469BB212E000F0E9
:101D700093FC03461846FEF75FFB4FF00002AF4BA3
:101D8000FEF7FAF903460C4618462146FEF746FED2
:101D900003469BB2AA4A138000F096FC03464FF01C
:101DA00000011846FFF76AF90346002B13D000F034
:101DB0008BFC03461846FEF73FFB4FF000029F4B9B
:101DC000FEF7DCF903460C4618462146FEF726FED0
:101DD00003469BB212E000F077FC03461846FEF77C
:101DE0002BFB4FF00002954BFEF7C6F903460C465D
:101DF00018462146FEF712FE03469BB2914A138015
:101E000000F04AFC0246904B1B6819461046FFF74B
:101E100017F90346002B0BD000F056FC02468B4B03
:101E20001B6819461046FFF70BF90346002B0DD12E
:101E300000F032FC0246844B1A6000F045FC02467A
:101E4000824B1A60002000F085FC07E000F092FC55
:101E5000034601339BB2184600F07CFC00F08AFC7C
:101E60000346B3F5FA7F10D3FFF7C8FEFFF7E2FE93
:101E7000FFF7D6FE7648FFF77DFE01210020FFF731
:101E800097FE7448FFF776FE2AE101210120FFF753
:101E90008FFE7148FFF76EFE0B210120FFF788FED1
:101EA000674B1B881846FFF7E9FE6C48FFF762FE98
:101EB00001210220FFF77CFE6948FFF75BFE01214C
:101EC0000220FFF775FE6748FFF754FE0521022048
:101ED000FFF76EFE5B4B1B881846FFF7CFFE09210C
:101EE0000220FFF765FE6048FFF744FE0E21022046
:101EF000FFF75EFE00F000FC0346002B03D15B48B9
:101F0000FFF738FE6AE000F0F7FB0346012B03D130
:101F10005748FFF72FFE61E000F0EEFB0346022B6F
:101F200003D15448FFF726FE58E000F0E5FB0346D6
:101F3000032B03D15048FFF71DFE4FE000F0DCFB00
:101F40000346042B03D14D48FFF714FE46E000F092
:101F5000D3FB0346052B03D14948FFF70BFE3DE0B9
:101F600000F0CAFB0346062B03D14648FFF702FEEA
:101F700034E000F0C1FB0346072B03D14248FFF7D2
:101F8000F9FD2BE000F0B8FB0346082B03D13F48D6
:101F9000FFF7F0FD22E000F0AFFB0346092B03D171
:101FA0003B48FFF7E7FD19E000F0A6FB03460A2BCC
:101FB00003D13848FFF7DEFD10E000F09DFB03463B
:101FC0000B2B03D13448FFF7D5FD07E000F094FB5D
:101FD00003460C2B02D13148FFF7CCFD184B1A8871
:101FE0002F4B1A80174B1A882E4B1A8000F09EFB3D
:101FF0000346012B1ED100F0A3FB0346002B06D1A4
:102000000B210120FFF7D4FDFFF726FE68E000F06A
:1020100097FB0346012B06D105210220FFF7C8FDDF
:10202000FFF71AFE5CE00E210220FFF7C1FDFFF76B
:1020300013FE55E0FFF7FEFD52E000BF0000E03F59
:102040006201002056010020580100205C010020A0
:10205000DCBA0008ECBA0008F8BA00080CBB0008AB
:1020600010BB000824BB00082CBB000834BB0008D0
:1020700038BB00083CBB000840BB000844BB00085C
:1020800048BB00084CBB000850BB000854BB00080C
:1020900058BB00085CBB000860BB000864BB0008BC
:1020A0005401002060010020FFF7A8FDFFF7C2FDEA
:1020B000FFF7B6FD01210120FFF77AFD0948FFF780
:1020C00059FD01210220FFF773FD0748FFF752FD7C
:1020D000FFF7B0FD642006F0A7FD002000F03AFBFA
:1020E00000BF98BD68BB00087CBB000880B584B009
:1020F00000AF444BBB600023FB710DE0B868FFF7F5
:10210000CFF80246FB79D1B23F4AD154BB680433C1
:10211000BB60FB790133FB71FB79042BEED93A4BA1
:102120001B781A46642303FB02F3374A52781344A0
:102130001846FEF79DFD0346FB603449F868FEF73C
:10214000A7FF0346002B02D04FF00003FB604FF0C7
:102150000001F868FEF77EFF0346002B02D04FF027
:10216000000300E0FB68FB602949F868FEF790FF78
:102170000346002B01D0264B00E0FB68FB60F868AB
:1021800000F094FA204B9B781A46642303FB02F379
:102190001D4AD27813441846FEF76AFD0346FB60D9
:1021A0001C49F868FEF756FF0346002B01D0194B77
:1021B00000E0FB68FB601849F868FEF769FF03461A
:1021C000002B01D0144B00E0FB68FB60F86800F0C6
:1021D00085FA0D4B1B79BB71BB790C2B28BF0C23E7
:1021E000BB71BB79184600F091FA0C4B01221A70B2
:1021F0000A4B00225A70094B00229A8000BF103708
:10220000BD4680BD00F00008740100200000CA42F5
:102210000000C84200803B450040B545C00000209A
:1022200080B500AFFFF7FEF90346012B40F05E8159
:10223000FFF718FA0346012B0ED1834B1B78012BB5
:1022400003D1814B00221A7002E07F4B01221A70E9
:102250000220FFF7F1F949E1FFF704FA0346032BE7
:1022600018D1794B1B78012B10D1774BDB78002BE1
:102270000CBF01230023DBB21A46734BDA70724B9A
:10228000DB78002B02D0704B00225A700220FFF73F
:10229000D3F92BE1FFF7E6F90346022B18D16A4B7D
:1022A0001B78012B10D1684BDB78002B0CD0664BD0
:1022B0005B780133DAB2644B5A70634B5B78022B64
:1022C00002D9614B00225A700220FFF7B5F90DE1E7
:1022D000FFF7C8F90346042B18D15B4B1B78012B81
:1022E00010D1594BDB78002B0CD0574B5B78002B6F
:1022F00002D1554B02225A70534B5B78013BDAB244
:10230000514B5A700220FFF797F9EFE0FFF7AAF957
:102310000346052B78D14C4B1B78012B70D14A4BCF
:10232000DB78002B6CD0484B5B78002B39D1464BC7
:102330009B6846491846FEF7ABFE0346002B0CD0BF
:10234000414B9B6842491846FEF78EFE0346002B20
:1023500003D03D4B4FF000029A603B4B9B683D49D8
:102360001846FEF795FE0346002B02D0364B394A3D
:102370009A60354B9B6835491846FEF789FE03463F
:10238000002B0AD0304B9B6830491846FEF7BAFB49
:1023900003461A462C4B9A6003E02B4B4FF0000289
:1023A0009A60294B5B78012B16D1274BDB682A49B1
:1023B0001846FEF76DFE0346002B0AD0224BDB6861
:1023C00024491846FEF79EFB03461A461E4BDA6068
:1023D00002E01D4B204ADA601B4B5B78022B0DD1CB
:1023E000194B9B78012B06D9174B9B78013BDAB22E
:1023F000154B9A7002E0144B00229A7000F080F89E
:102400000220FFF719F971E0FFF72CF90346062BBC
:102410006CD10D4B1B78012B65D10B4BDB78002B5E
:1024200061D0094B5B78002B30D1074B9B684FF094
:102430007E511846FEF70EFE0346002B10D0024BCD
:10244000064A9A6016E000BFC00000200000A040CD
:10245000000030410000C84200803B4500002041A0
:10246000234B9B6823491846FEF74EFB03461A464A
:102470001F4B9A601E4B9B681F491846FEF708FECB
:102480000346002B02D01A4B1B4A9A60184B5B780C
:10249000012B15D1164BDB6817491846FEF734FBA4
:1024A00003461A46124BDA60114BDB681349184693
:1024B000FEF7EEFD0346002B02D00D4B0F4ADA600B
:1024C0000B4B5B78022B0CD1094B9B780133DAB2B2
:1024D000074B9A70064B9B780C2B02D9044B0C22AD
:1024E0009A7000F00DF80220FFF7A6F800BF80BD3B
:1024F000C00000200000A0400000C8420040B545D8
:1025000080B582B000AF254B9B681846FEF7CAFD28
:102510000346FB80214BDB681846FEF7C3FD0346EC
:10252000BB80FB881E4AA2FB03235B099BB2DAB285
:102530001C4B1A70FB881A4AA2FB03125209642131
:1025400001FB02F29B1A9BB2DAB2164B5A70BB889F
:10255000134AA2FB03235B099BB2DAB2114B9A70B8
:10256000BB880F4AA2FB03125209642101FB02F24D
:102570009B1A9BB2DAB20B4BDA70084B9A78094B74
:102580001A71084A08490948FEF750FE034B002219
:102590009A8000BF0837BD4680BD00BFC000002044
:1025A0001F85EB518401002000F4000800F00008B2
:1025B00080B584B000AFF860B9607A602B4B1B68BF
:1025C0001946F868FEF79EFA03461A46284B1A6029
:1025D000284B1B681946B868FEF794FA03461A465A
:1025E000254B1A60224B1B6879681846FEF748FC99
:1025F00003461A46214B1B6819461046FEF784FA1B
:1026000003461A461D4B1A601C4B1B68174A136081
:10261000194B1B6879681846FEF732FC03461A46C8
:10262000174B1B6819461046FEF76EFA03461A460A
:10263000134B1A60124B1B680E4A13600C4B1B683D
:102640004FF000011846FEF7FBFC0346002B00D0BC
:1026500007E00A4B1A680A4B1B681946104605F03A
:1026600099FF00BF1037BD4680BD00BF6801002044
:102670006401002080010020700100206C01002016
:102680007C01002080B400AF024B1B781846BD4689
:1026900080BC7047C000002080B400AF024B9B6834
:1026A0001846BD4680BC7047C000002080B483B08F
:1026B00000AF7860034A7B68936000BF0C37BD466B
:1026C00080BC7047C000002080B400AF024BDB68C4
:1026D0001846BD4680BC7047C000002080B483B05F
:1026E00000AF7860034A7B68D36000BF0C37BD46FB
:1026F00080BC7047C000002080B400AF024B9B78C4
:102700001846BD4680BC7047C000002080B483B02E
:1027100000AF0346FB71044AFB79937000BF0C378E
:10272000BD4680BC704700BFC000002080B400AF31
:10273000024BDB781846BD4680BC7047C0000020C5
:1027400080B400AF024B5B781846BD4680BC704732
:10275000C000002080B483B000AF0346FB80044A71
:10276000FB88938000BF0C37BD4680BC704700BF1C
:10277000C000002080B400AF024B9B881846BD46C5
:1027800080BC7047C000002090B583B000AFD64B2E
:102790001B780133DAB2D44B1A70FFF77DFF7860F3
:1027A000FFF792FF3860D1497868FEF753FC034683
:1027B000002B01D0CD4B7B60CD4B1B7803F0030386
:1027C000DBB2002B40F0CD84C94B00221A70C64BFF
:1027D0001B78013B422B00F2BF8401A252F823F088
:1027E000ED2800081129000835290008592900089A
:1027F0007D290008A1290008C5290008E929000849
:1028000081380008813800080D2A0008312A0008A4
:10281000552A0008792A0008F52A0008192B000813
:102820003D2B0008612B0008852B0008972B000822
:10283000A92B0008CD2B0008F12B0008152C00084F
:10284000392C00085D2C0008812C0008A52C0008FC
:10285000C92C0008ED2C0008112D0008352D0008AA
:10286000592D00087D2D0008A12D0008C52D000858
:10287000E92D00080D2E0008C92E0008DB2E0008E7
:10288000ED2E0008FF2E0008112F0008232F00084E
:10289000472F00086B2F00088F2F0008B32F000868
:1028A000D72F0008FB2F00081F3000084330000816
:1028B0006730000879300008893000089930000836
:1028C000A9300008B9300008C9300008D930000824
:1028D000E9300008F9300008093100081931000812
:1028E0002931000839310008493100087868FDF7BE
:1028F000A3FD6BA3D3E90023FDF7F6FD03460C46C9
:1029000018462146FEF7AAF803467B6000F0BBBFDD
:102910007868FDF791FD64A3D3E90023FDF7E4FD9A
:1029200003460C4618462146FEF798F803467B609E
:1029300000F0A9BF7868FDF77FFD59A3D3E9002314
:10294000FDF7D2FD03460C4618462146FEF786F8F1
:1029500003467B6000F097BF7868FDF76DFD50A3DC
:10296000D3E90023FDF7C0FD03460C461846214677
:10297000FEF774F803467B6000F085BF7868FDF7CA
:102980005BFD4BA3D3E90023FDF7AEFD03460C46E8
:1029900018462146FEF762F803467B6000F073BFDD
:1029A0007868FDF749FD44A3D3E90023FDF79CFDBA
:1029B00003460C4618462146FEF750F803467B6056
:1029C00000F061BF7868FDF737FD3DA3D3E9002330
:1029D000FDF78AFD03460C4618462146FEF73EF8F1
:1029E00003467B6000F04FBF7868FDF725FD32A3FA
:1029F000D3E90023FDF778FD03460C46184621462F
:102A0000FEF72CF803467B6000F03DBF7868FDF7C9
:102A100013FD2DA3D3E90023FDF766FD03460C4605
:102A200018462146FEF71AF803467B6000F02BBFDC
:102A30007868FDF701FD26A3D3E90023FDF754FDD7
:102A400003460C4618462146FEF708F803467B600D
:102A500000F019BF7868FDF7EFFC1FA3D3E900234E
:102A6000FDF742FD03460C4618462146FDF7F6FFEA
:102A700003467B6000F007BF7868FDF7DDFC18A314
:102A8000D3E90023FDF730FD03460C4618462146E6
:102A9000FDF7E4FF03467B6000F0F5BEAFF3008076
:102AA0009A9999999999E13F333333333333E33F1B
:102AB00014AE47E17A14DE3F0AD7A3703D0AB73F50
:102AC0009A9999999999A93F666666666666EE3FF6
:102AD000CDCCCCCCCCCCEC3F333333333333EB3FA6
:102AE000666666666666E63FD000002000004842E3
:102AF000D10000207868FDF79FFCCDA3D3E9002327
:102B0000FDF7F2FC03460C4618462146FDF7A6FFEA
:102B100003467B6000F0B7BE7868FDF78DFCC4A368
:102B2000D3E90023FDF7E0FC03460C461846214696
:102B3000FDF794FF03467B6000F0A5BE7868FDF7C3
:102B40007BFCBDA3D3E90023FDF7CEFC03460C4676
:102B500018462146FDF782FF03467B6000F093BED6
:102B60007868FDF769FCB4A3D3E90023FDF7BCFC4A
:102B700003460C4618462146FDF770FF03467B606E
:102B800000F081BE4FF07C517868FEF7C5F803462F
:102B90007B6000F078BE4FF07C517868FEF7BCF89F
:102BA00003467B6000F06FBE7868FDF745FCA2A38A
:102BB000D3E90023FDF798FC03460C46184621464E
:102BC000FDF74CFF03467B6000F05DBE7868FDF7C3
:102BD00033FC9BA3D3E90023FDF786FC03460C4698
:102BE00018462146FDF73AFF03467B6000F04BBED6
:102BF0007868FDF721FC94A3D3E90023FDF774FC6A
:102C000003460C4618462146FDF728FF03467B6025
:102C100000F039BE7868FDF70FFC8DA3D3E90023DF
:102C2000FDF762FC03460C4618462146FDF716FFE9
:102C300003467B6000F027BE7868FDF7FDFB86A3A6
:102C4000D3E90023FDF750FC03460C461846214605
:102C5000FDF704FF03467B6000F015BE7868FDF7C2
:102C6000EBFB7FA3D3E90023FDF73EFC03460C46B4
:102C700018462146FDF7F2FE03467B6000F003BED6
:102C80007868FDF7D9FB78A3D3E90023FDF72CFC86
:102C900003460C4618462146FDF7E0FE03467B60DE
:102CA00000F0F1BD7868FDF7C7FB71A3D3E90023FD
:102CB000FDF71AFC03460C4618462146FDF7CEFEEA
:102CC00003467B6000F0DFBD7868FDF7B5FB6AA3C3
:102CD000D3E90023FDF708FC03460C4618462146BD
:102CE000FDF7BCFE03467B6000F0CDBD7868FDF7C4
:102CF000A3FB63A3D3E90023FDF7F6FB03460C46D1
:102D000018462146FDF7AAFE03467B6000F0BBBDD6
:102D10007868FDF791FB5CA3D3E90023FDF7E4FBA2
:102D200003460C4618462146FDF798FE03467B6095
:102D300000F0A9BD7868FDF77FFB55A3D3E9002318
:102D4000FDF7D2FB03460C4618462146FDF786FEEA
:102D500003467B6000F097BD7868FDF76DFB4EA3DE
:102D6000D3E90023FDF7C0FB03460C461846214675
:102D7000FDF774FE03467B6000F085BD7868FDF7C3
:102D80005BFB47A3D3E90023FDF7AEFB03460C46EC
:102D900018462146FDF762FE03467B6000F073BDD6
:102DA0007868FDF749FB40A3D3E90023FDF79CFBBE
:102DB00003460C4618462146FDF750FE03467B604D
:102DC00000F061BD7868FDF737FB39A3D3E9002334
:102DD000FDF78AFB03460C4618462146FDF73EFEEA
:102DE00003467B6000F04FBD7868FDF725FB32A3FA
:102DF000D3E90023FDF778FB03460C46184621462D
:102E0000FDF72CFE03467B6000F03DBD7868FDF7C2
:102E100013FB2BA3D3E90023FDF766FB03460C4607
:102E200018462146FDF71AFE03467B6000F02BBDD5
:102E3000333333333333E33F9A9999999999C93F9F
:102E40009A9999999999D93F52B81E85EB51D83FD3
:102E5000666666666666D63F2855DD4E1BE8D43F3B
:102E60008EBB43B5814ED33FF421AA1BE8B4D13FBA
:102E70005B8810824E1BD03F82DDEDD06903CD3FD1
:102E80004FAABA9D36D0C93F1C77876A039DC63FBB
:102E9000E9435437D069C33FB61021049D36C03F83
:102EA00005BBDBA1D306BA3F9E54753B6DA0B33F73
:102EB00070DC1DAA0D74AA3F471FA2BA814E9B3F2A
:102EC000CF5A8810824E5B3F4FF000017868FDF7C3
:102ED00023FF03467B6000F0D6BC4FF0000178680A
:102EE000FDF71AFF03467B6000F0CDBC4FF00001F8
:102EF0007868FDF711FF03467B6000F0C4BC4FF01B
:102F000000017868FDF708FF03467B6000F0BBBC5A
:102F10004FF000017868FDF7FFFE03467B6000F08C
:102F2000B2BC7868FDF788FAC7A3D3E90023FDF7A0
:102F3000DBFA03460C4618462146FDF78FFD034693
:102F40007B6000F0A0BC7868FDF776FAC0A3D3E9F7
:102F50000023FDF7C9FA03460C4618462146FDF743
:102F60007DFD03467B6000F08EBC7868FDF764FA57
:102F7000B9A3D3E90023FDF7B7FA03460C46184678
:102F80002146FDF76BFD03467B6000F07CBC786852
:102F9000FDF752FAB2A3D3E90023FDF7A5FA0346E1
:102FA0000C4618462146FDF759FD03467B6000F0AC
:102FB0006ABC7868FDF740FAABA3D3E90023FDF7BC
:102FC00093FA03460C4618462146FDF747FD034693
:102FD0007B6000F058BC7868FDF72EFAA4A3D3E913
:102FE0000023FDF781FA03460C4618462146FDF7FB
:102FF00035FD03467B6000F046BC7868FDF71CFA9F
:1030000099A3D3E90023FDF76FFA03460C4618464F
:103010002146FDF723FD03467B6000F034BC786851
:10302000FDF70AFA8EA3D3E90023FDF75DFA034604
:103030000C4618462146FDF711FD03467B6000F063
:1030400022BC7868FDF7F8F97FA3D3E90023FDF7E8
:103050004BFA03460C4618462146FDF7FFFC034693
:103060007B6000F010BC4FF000017868FDF754FE63
:1030700003467B6000F007BC4FF000017868FDF765
:103080004BFE03467B60FEE34FF000017868FDF7DE
:1030900043FE03467B60F6E34FF000017868FDF7DE
:1030A0003BFE03467B60EEE34FF000017868FDF7DE
:1030B00033FE03467B60E6E34FF000017868FDF7DE
:1030C0002BFE03467B60DEE34FF000017868FDF7DE
:1030D00023FE03467B60D6E34FF000017868FDF7DE
:1030E0001BFE03467B60CEE34FF000017868FDF7DE
:1030F00013FE03467B60C6E34FF000017868FDF7DE
:103100000BFE03467B60BEE34FF000017868FDF7DD
:1031100003FE03467B60B6E34FF000017868FDF7DD
:10312000FBFD03467B60AEE34FF000017868FDF7DE
:10313000F3FD03467B60A6E34FF000017868FDF7DE
:10314000EBFD03467B609EE34FF000017868FDF7DE
:10315000E3FD03467B6096E3474B00221A7000BFF5
:1031600091E3454B1B78013B332B00F2858301A291
:1031700052F823F07D3200089F320008C132000867
:10318000E3320008053300082733000849330008FC
:103190006B33000885380008853800088D33000837
:1031A000AF330008D1330008F333000815340008AA
:1031B00037340008593400087B3400089D34000877
:1031C000AD340008BD340008DF34000801350008C4
:1031D000233500084535000867350008013600082A
:1031E000233600084536000867360008893600088F
:1031F000AB360008CD360008EF360008113700085E
:10320000333700085537000877370008993700082A
:10321000A9370008B9370008C9370008D9370008AE
:10322000E9370008F937000809380008193800089C
:10323000293800083938000849380008593800088A
:1032400069380008AFF300807B14AE47E17A843F11
:103250007B14AE47E17A943FB81E85EB51B89E3F90
:103260007B14AE47E17AA43FEC51B81E85EBB13F29
:103270009A9999999999B93FD00000207868FDF7FB
:10328000DBF8C1A3D3E90023FDF72EF903460C4672
:1032900018462146FDF7E2FB03467B60F3E27868BF
:1032A000FDF7CAF8BAA3D3E90023FDF71DF90346D9
:1032B0000C4618462146FDF7D1FB03467B60E2E24F
:1032C0007868FDF7B9F8B0A3D3E90023FDF70CF94E
:1032D00003460C4618462146FDF7C0FB03467B60BB
:1032E000D1E27868FDF7A8F8A7A3D3E90023FDF79A
:1032F000FBF803460C4618462146FDF7AFFB034694
:103300007B60C0E27868FDF797F8A3A3D3E90023B8
:10331000FDF7EAF803460C4618462146FDF79EFBEA
:1033200003467B60AFE27868FDF786F89CA3D3E99B
:103330000023FDF7D9F803460C4618462146FDF751
:103340008DFB03467B609EE27868FDF775F896A3D7
:10335000D3E90023FDF7C8F803460C46184621467A
:10336000FDF77CFB03467B608DE27868FDF764F82F
:103370008BA3D3E90023FDF7B7F803460C461846A4
:103380002146FDF76BFB03467B607CE27868FDF726
:1033900053F887A3D3E90023FDF7A6F803460C46AC
:1033A00018462146FDF75AFB03467B606BE27868BE
:1033B000FDF742F880A3D3E90023FDF795F8034613
:1033C0000C4618462146FDF749FB03467B605AE24E
:1033D0007868FDF731F87AA3D3E90023FDF784F884
:1033E00003460C4618462146FDF738FB03467B6032
:1033F00049E27868FDF720F873A3D3E90023FDF7CD
:1034000073F803460C4618462146FDF727FB034692
:103410007B6038E27868FDF70FF85DA3D3E90023FD
:10342000FDF762F803460C4618462146FDF716FBE9
:1034300003467B6027E27868FCF7FEFF54A3D3E9DC
:103440000023FDF751F803460C4618462146FDF7C8
:1034500005FB03467B6016E27868FCF7EDFF5CA392
:10346000D3E90023FDF740F803460C4618462146F1
:10347000FDF7F4FA03467B6005E27868FCF7DCFFB1
:1034800053A3D3E90023FDF72FF803460C46184653
:103490002146FDF7E3FA03467B60F4E14FF07C51EF
:1034A0007868FDF739FC03467B60ECE14FF07C5116
:1034B0007868FDF731FC03467B60E4E17868FCF74F
:1034C000BBFF43A3D3E90023FDF70EF803460C46E8
:1034D00018462146FDF7C2FA03467B60D3E17868BF
:1034E000FCF7AAFF3CA3D3E90023FCF7FDFF03464A
:1034F0000C4618462146FDF7B1FA03467B60C2E14F
:103500007868FCF799FF36A3D3E90023FCF7ECFFBA
:1035100003460C4618462146FDF7A0FA03467B6099
:10352000B1E17868FCF788FF2FA3D3E90023FCF70B
:10353000DBFF03460C4618462146FDF78FFA03468B
:103540007B60A0E17868FCF777FF29A3D3E900232B
:10355000FCF7CAFF03460C4618462146FDF77EFAE3
:1035600003467B608FE17868FCF766FF22A3D3E90E
:103570000023FCF7B9FF03460C4618462146FDF729
:103580006DFA03467B607EE19A9999999999E13F9A
:10359000333333333333E33F14AE47E17A14DE3F42
:1035A0000AD7A3703D0AB73F9A9999999999A93F6B
:1035B000666666666666EE3FCDCCCCCCCCCCEC3F86
:1035C000333333333333EB3F666666666666E63F16
:1035D0009A9999999999C93F9A9999999999D93F9D
:1035E00052B81E85EB51D83F666666666666D63F62
:1035F0002855DD4E1BE8D43F8EBB43B5814ED33FEB
:103600007868FCF719FFAAA3D3E90023FCF76CFF45
:1036100003460C4618462146FDF720FA03467B6018
:1036200031E17868FCF708FFA3A3D3E90023FCF796
:103630005BFF03460C4618462146FDF70FFA03468A
:103640007B6020E17868FCF7F7FE9DA3D3E90023B7
:10365000FCF74AFF03460C4618462146FDF7FEF9E3
:1036600003467B600FE17868FCF7E6FE96A3D3E99A
:103670000023FCF739FF03460C4618462146FDF7A8
:10368000EDF903467B60FEE07868FCF7D5FE90A379
:10369000D3E90023FCF728FF03460C4618462146D1
:1036A000FDF7DCF903467B60EDE07868FCF7C4FECB
:1036B00089A3D3E90023FCF717FF03460C461846FD
:1036C0002146FDF7CBF903467B60DCE07868FCF728
:1036D000B3FE83A3D3E90023FCF706FF03460C46A1
:1036E00018462146FDF7BAF903467B60CBE07868BF
:1036F000FCF7A2FE7CA3D3E90023FCF7F5FE03460A
:103700000C4618462146FDF7A9F903467B60BAE04E
:103710007868FCF791FE76A3D3E90023FCF7E4FE7A
:1037200003460C4618462146FDF798F903467B6090
:10373000A9E07868FCF780FE6FA3D3E90023FCF7CB
:10374000D3FE03460C4618462146FDF787F903468B
:103750007B6098E07868FCF76FFE69A3D3E90023EB
:10376000FCF7C2FE03460C4618462146FDF776F9E3
:1037700003467B6087E07868FCF75EFE62A3D3E9CE
:103780000023FCF7B1FE03460C4618462146FDF720
:1037900065F903467B6076E04FF000017868FDF73D
:1037A000BBFA03467B606EE04FF000017868FDF7DE
:1037B000B3FA03467B6066E04FF000017868FDF7DE
:1037C000ABFA03467B605EE04FF000017868FDF7DE
:1037D000A3FA03467B6056E04FF000017868FDF7DE
:1037E0009BFA03467B604EE04FF000017868FDF7DE
:1037F00093FA03467B6046E04FF000017868FDF7DE
:103800008BFA03467B603EE04FF000017868FDF7DD
:1038100083FA03467B6036E04FF000017868FDF7DD
:103820007BFA03467B602EE04FF000017868FDF7DD
:1038300073FA03467B6026E04FF000017868FDF7DD
:103840006BFA03467B601EE04FF000017868FDF7DD
:1038500063FA03467B6016E04FF000017868FDF7DD
:103860005BFA03467B600EE04FF000017868FDF7DD
:1038700053FA03467B6006E0254B00221A7002E0F3
:1038800000BF00E000BF224B1B78002B05D1214B6D
:103890001B780133DAB21F4B1A703968786804F06C
:1038A00079FE00BF0C37BD4690BD00BFAFF300806E
:1038B000F421AA1BE8B4D13F5B8810824E1BD03F95
:1038C00082DDEDD06903CD3F4FAABA9D36D0C93F06
:1038D0001C77876A039DC63FE9435437D069C33FCD
:1038E000B61021049D36C03F05BBDBA1D306BA3F0D
:1038F0009E54753B6DA0B33F70DC1DAA0D74AA3FAA
:10390000471FA2BA814E9B3FCF5A8810824E5B3F21
:10391000D0000020D100002090B583B000AFD24B82
:103920001B780133DAB2D04B1A70FEF7B5FE78601F
:10393000FEF7CAFE3860CD497868FDF78BFB034679
:10394000002B01D0C94B7B60C74B1B78013B362B4A
:1039500000F2008401A252F823F000BF393A0008B7
:103960005B3A00087D3A00089F3A0008C13A000817
:10397000E33A0008F33A0008153B0008373B00081B
:10398000593B00087B3B00089D3B0008BF3B0008FB
:10399000E13B0008713C0008933C0008B53C00087E
:1039A000D73C0008F93C00081B3D00083D3D0008DD
:1039B0005F3D0008813D0008A33D0008C53D0008AB
:1039C000E73D0008093E00082B3E00084D3E000878
:1039D0006F3E0008913E0008B33E0008D53E000847
:1039E000F73E0008193F00083B3F00085D3F000814
:1039F000C93F0008EB3F00080D4000082F400008B9
:103A0000514000087340000895400008A540000898
:103A1000B5400008C5400008D5400008E540000852
:103A2000F54000080541000815410008254100083F
:103A300035410008454100087868FCF7FDFC72A399
:103A4000D3E90023FCF750FD03460C4618462146F7
:103A5000FDF704F803467B6080E37868FCF7ECFC34
:103A60006BA3D3E90023FCF73FFD03460C46184641
:103A70002146FCF7F3FF03467B606FE37868FCF7B1
:103A8000DBFC65A3D3E90023FCF72EFD03460C46BF
:103A900018462146FCF7E2FF03467B605EE3786848
:103AA000FCF7CAFC5EA3D3E90023FCF71DFD034627
:103AB0000C4618462146FCF7D1FF03467B604DE3D8
:103AC0007868FCF7B9FC58A3D3E90023FCF70CFD98
:103AD00003460C4618462146FCF7C0FF03467B60B0
:103AE0003CE34FF07A517868FDF716F903467B60A6
:103AF00034E37868FCF7A0FC4DA3D3E90023FCF77E
:103B0000F3FC03460C4618462146FCF7A7FF034684
:103B10007B6023E37868FCF78FFC47A3D3E900239D
:103B2000FCF7E2FC03460C4618462146FCF796FFDC
:103B300003467B6012E37868FCF77EFC40A3D3E980
:103B40000023FCF7D1FC03460C4618462146FCF73F
:103B500085FF03467B6001E37868FCF76DFC3AA3C0
:103B6000D3E90023FCF7C0FC03460C461846214667
:103B7000FCF774FF03467B60F0E27868FCF75CFCBE
:103B800033A3D3E90023FCF7AFFC03460C461846E9
:103B90002146FCF763FF03467B60DFE27868FCF7B1
:103BA0004BFC2DA3D3E90023FCF79EFC03460C46F7
:103BB00018462146FCF752FF03467B60CEE2786848
:103BC000FCF73AFC24A3D3E90023FCF78DFC034661
:103BD0000C4618462146FCF741FF03467B60BDE2D8
:103BE0007868FCF729FC1EA3D3E90023FCF77CFCD2
:103BF00003460C4618462146FCF730FF03467B601F
:103C0000ACE200BFAFF300809A9999999999A93FC6
:103C10009A9999999999B93FA4703D0AD7A3C03F41
:103C2000333333333333C33F9A9999999999C93FC1
:103C3000333333333333D33F9A9999999999D93F91
:103C4000333333333333E33F9A9999999999E93F61
:103C5000CDCCCCCCCCCCEC3FAE47E17A14AEEF3F30
:103C60000AD7A3703D0AEF3FD2000020000048426F
:103C70007868FCF7E1FBC2A3D3E90023FCF734FC2E
:103C800003460C4618462146FCF7E8FE03467B60D7
:103C900064E27868FCF7D0FBBBA3D3E90023FCF710
:103CA00023FC03460C4618462146FCF7D7FE034684
:103CB0007B6053E27868FCF7BFFBB3A3D3E9002332
:103CC000FCF712FC03460C4618462146FCF7C6FEDC
:103CD00003467B6042E27868FCF7AEFBA8A3D3E919
:103CE0000023FCF701FC03460C4618462146FCF76E
:103CF000B5FE03467B6031E27868FCF79DFBA0A32C
:103D0000D3E90023FCF7F0FB03460C461846214696
:103D1000FCF7A4FE03467B6020E27868FCF78CFB8E
:103D20009BA3D3E90023FCF7DFFB03460C461846B0
:103D30002146FCF793FE03467B600FE27868FCF7B0
:103D40007BFB93A3D3E90023FCF7CEFB03460C4691
:103D500018462146FCF782FE03467B60FEE1786848
:103D6000FCF76AFB8CA3D3E90023FCF7BDFB0346F9
:103D70000C4618462146FCF771FE03467B60EDE1D8
:103D80007868FCF759FB86A3D3E90023FCF7ACFB6A
:103D900003460C4618462146FCF760FE03467B604E
:103DA000DCE17868FCF748FB7FA3D3E90023FCF74C
:103DB0009BFB03460C4618462146FCF74FFE034684
:103DC0007B60CBE17868FCF737FB79A3D3E900236C
:103DD000FCF78AFB03460C4618462146FCF73EFEDC
:103DE00003467B60BAE17868FCF726FB72A3D3E94F
:103DF0000023FCF779FB03460C4618462146FCF7E6
:103E00002DFE03467B60A9E17868FCF715FB60A3F3
:103E1000D3E90023FCF768FB03460C46184621460D
:103E2000FCF71CFE03467B6098E17868FCF704FB16
:103E300057A3D3E90023FCF757FB03460C4618466B
:103E40002146FCF70BFE03467B6087E17868FCF7B0
:103E5000F3FA59A3D3E90023FCF746FB03460C46CB
:103E600018462146FCF7FAFD03467B6076E1786848
:103E7000FCF7E2FA50A3D3E90023FCF735FB034635
:103E80000C4618462146FCF7E9FD03467B6065E1D8
:103E90007868FCF7D1FA3EA3D3E90023FCF724FBB2
:103EA00003460C4618462146FCF7D8FD03467B60C6
:103EB00054E17868FCF7C0FA41A3D3E90023FCF78A
:103EC00013FB03460C4618462146FCF7C7FD034684
:103ED0007B6043E17868FCF7AFFA2DA3D3E90023B8
:103EE000FCF702FB03460C4618462146FCF7B6FDDC
:103EF00003467B6032E17868FCF79EFA30A3D3E991
:103F00000023FCF7F1FA03460C4618462146FCF75D
:103F1000A5FD03467B6021E17868FCF78DFA1CA3C0
:103F2000D3E90023FCF7E0FA03460C461846214685
:103F3000FCF794FD03467B6010E17868FCF77CFA9F
:103F40001FA3D3E90023FCF7CFFA03460C4618461B
:103F50002146FCF783FD03467B60FFE07868FCF7B1
:103F60006BFA0BA3D3E90023FCF7BEFA03460C4619
:103F700018462146FCF772FD03467B60EEE000BF69
:103F80000AD7A3703D0AEF3FC3F5285C8FC2ED3F0F
:103F9000AE47E17A14AEEF3FA4703D0AD7A3E83FE5
:103FA0001F85EB51B81EE53F1F85EB51B81ED53F6D
:103FB000295C8FC2F528DC3F295C8FC2F528EC3FD5
:103FC000666666666666E63F7868FCF735FA68A35B
:103FD000D3E90023FCF788FA03460C46184621462D
:103FE000FCF73CFD03467B60B8E07868FCF724FAF8
:103FF00061A3D3E90023FCF777FA03460C46184681
:104000002146FCF72BFD03467B60A7E07868FCF7B0
:1040100013FA57A3D3E90023FCF766FA03460C46CC
:1040200018462146FCF71AFD03467B6096E0786847
:10403000FCF702FA52A3D3E90023FCF755FA034632
:104040000C4618462146FCF709FD03467B6085E0D7
:104050007868FCF7F1F94CA3D3E90023FCF744FAA4
:1040600003460C4618462146FCF7F8FC03467B60E5
:1040700074E07868FCF7E0F945A3D3E90023FCF786
:1040800033FA03460C4618462146FCF7E7FC034684
:104090007B6063E04FF000017868FCF73DFE03466B
:1040A0007B605BE04FF000017868FCF735FE03466B
:1040B0007B6053E04FF000017868FCF72DFE03466B
:1040C0007B604BE04FF000017868FCF725FE03466B
:1040D0007B6043E04FF000017868FCF71DFE03466B
:1040E0007B603BE04FF000017868FCF715FE03466B
:1040F0007B6033E04FF000017868FCF70DFE03466B
:104100007B602BE04FF000017868FCF705FE03466A
:104110007B6023E04FF000017868FCF7FDFD03466B
:104120007B601BE04FF000017868FCF7F5FD03466B
:104130007B6013E04FF000017868FCF7EDFD03466B
:104140007B600BE04FF000017868FCF7E5FD03466B
:104150007B6003E0104B00221A7000BF396878685A
:1041600004F018FA00BF0C37BD4690BDAFF30080D5
:10417000666666666666E63FAE47E17A14AEEF3F76
:104180000AD7A3703D0AB73FEC51B81E85EBB13F8B
:10419000B81E85EB51B89E3FD20000200000000001
:1041A00090B583B000AFCE4B1B780133DAB2CC4B65
:1041B0001A70FEF771FA7860FEF786FA3860C84B1D
:1041C0001B78013B362B00F21F8401A252F823F02A
:1041D000AD420008CF420008F14200081343000836
:1041E000114A000835430008574300087943000886
:1041F0009B430008BD430008CD430008EF4300087F
:1042000011440008214400083144000853440008C8
:104210007544000885440008E54400080745000887
:10422000294500084B4500086D4500088F450008EA
:10423000B1450008D3450008E345000805460008DD
:1042400027460008494600086B4600087B460008E0
:104250009D460008BF460008E146000803470008E5
:104260002547000847470008694700088B470008B2
:104270009B470008BD4700085148000873480008E4
:1042800095480008B7480008D9480008FB480008CE
:104290001D4900083F49000861490008834900089A
:1042A000A5490008C7490008E94900087868FCF7F3
:1042B000C3F879A3D3E90023FCF716F903460C46AB
:1042C00018462146FCF7CAFB03467B60A1E37868E9
:1042D000FCF7B2F872A3D3E90023FCF705F9034613
:1042E0000C4618462146FCF7B9FB03467B6090E379
:1042F0007868FCF7A1F86CA3D3E90023FCF7F4F885
:1043000003460C4618462146FCF7A8FB03467B6093
:104310007FE37868FCF790F865A3D3E90023FCF706
:10432000E3F803460C4618462146FCF797FB034684
:104330007B606EE37868FCF77FF857A3D3E900232E
:10434000FCF7D2F803460C4618462146FCF786FBDC
:1043500003467B605DE37868FCF76EF856A3D3E90B
:104360000023FCF7C1F803460C4618462146FCF72B
:1043700075FB03467B604CE37868FCF75DF850A35F
:10438000D3E90023FCF7B0F803460C461846214653
:10439000FCF764FB03467B603BE37868FCF74CF872
:1043A00049A3D3E90023FCF79FF803460C461846BF
:1043B0002146FCF753FB03467B602AE34FF07C5118
:1043C0007868FCF7A9FC03467B6022E37868FCF779
:1043D00033F83FA3D3E90023FCF786F803460C46E5
:1043E00018462146FCF73AFB03467B6011E37868E8
:1043F000FCF722F838A3D3E90023FCF775F803464D
:104400000C4618462146FCF729FB03467B6000E377
:104410004FF07C517868FCF77FFC03467B60F8E244
:104420004FF07C517868FCF777FC03467B60F0E244
:104430007868FCF701F824A3D3E90023FCF754F8CB
:1044400003460C4618462146FCF708FB03467B60F2
:10445000DFE27868FBF7F0FF17A3D3E90023FCF74E
:1044600043F803460C4618462146FCF7F7FA034684
:104470007B60CEE24FF07D517868FCF74DFC03463F
:104480007B60C6E24FF07D517868FCF745FC03463F
:104490007B60BEE2AFF300809A9999999999E93FC0
:1044A000333333333333EB3FCDCCCCCCCCCCEC3FBC
:1044B000666666666666EE3F666666666666E63FE2
:1044C000333333333333E33F9A9999999999E13FE1
:1044D000CDCCCCCCCCCCDC3F5C8FC2F5285CDF3FB4
:1044E000D30000207868FBF7A7FFBDA3D3E9002322
:1044F000FBF7FAFF03460C4618462146FCF7AEFAD6
:1045000003467B6085E27868FBF796FFB6A3D3E9A4
:104510000023FBF7E9FF03460C4618462146FCF74B
:104520009DFA03467B6074E27868FBF785FFB0A3D1
:10453000D3E90023FBF7D8FF03460C461846214673
:10454000FCF78CFA03467B6063E27868FBF774FF44
:10455000A7A3D3E90023FBF7C7FF03460C46184681
:104560002146FCF77BFA03467B6052E27868FBF752
:1045700063FF9BA3D3E90023FBF7B6FF03460C467A
:1045800018462146FCF76AFA03467B6041E27868E8
:10459000FBF752FF98A3D3E90023FBF7A5FF0346DF
:1045A0000C4618462146FCF759FA03467B6030E278
:1045B0007868FBF741FF92A3D3E90023FBF794FF50
:1045C00003460C4618462146FCF748FA03467B6032
:1045D0001FE24FF07C517868FCF79EFB03467B603E
:1045E00017E27868FBF728FF87A3D3E90023FBF7DE
:1045F0007BFF03460C4618462146FCF72FFA03467C
:104600007B6006E27868FBF717FF81A3D3E90023FC
:10461000FBF76AFF03460C4618462146FCF71EFAD4
:1046200003467B60F5E17868FBF706FF76A3D3E9E4
:104630000023FBF759FF03460C4618462146FCF7BA
:104640000DFA03467B60E4E17868FBF7F5FE6EA3A4
:10465000D3E90023FBF748FF03460C4618462146E2
:10466000FCF7FCF903467B60D3E14FF07C5178689E
:10467000FCF752FB03467B60CBE17868FBF7DCFE7E
:1046800065A3D3E90023FBF72FFF03460C4618462A
:104690002146FCF7E3F903467B60BAE17868FBF753
:1046A000CBFE5FA3D3E90023FBF71EFF03460C46B6
:1046B00018462146FCF7D2F903467B60A9E17868E9
:1046C000FBF7BAFE58A3D3E90023FBF70DFF03461F
:1046D0000C4618462146FCF7C1F903467B6098E179
:1046E0007868FBF7A9FE52A3D3E90023FBF7FCFE91
:1046F00003460C4618462146FCF7B0F903467B609A
:1047000087E17868FBF798FE4BA3D3E90023FBF71A
:10471000EBFE03460C4618462146FCF79FF903467C
:104720007B6076E17868FBF787FE35A3D3E9002349
:10473000FBF7DAFE03460C4618462146FCF78EF9D5
:1047400003467B6065E17868FBF776FE3CA3D3E91E
:104750000023FBF7C9FE03460C4618462146FCF72A
:104760007DF903467B6054E17868FBF765FE22A380
:10477000D3E90023FBF7B8FE03460C461846214652
:10478000FCF76CF903467B6043E14FF07D5178689C
:10479000FCF7C2FA03467B603BE17868FBF74CFE0E
:1047A0000FA3D3E90023FBF79FFE03460C461846F0
:1047B0002146FCF753F903467B602AE17868FBF752
:1047C0003BFE21A3D3E90023FBF78EFE03460C46F4
:1047D00018462146FCF742F903467B6019E100BF09
:1047E0009A9999999999E93FCDCCCCCCCCCCEC3F16
:1047F000AE47E17A14AEEF3F666666666666E63FF0
:10480000333333333333E33FCDCCCCCCCCCCDC3F70
:10481000295C8FC2F528DC3F52B81E85EB51E03F82
:10482000A4703D0AD7A3E03FF6285C8FC2F5E03FB5
:1048300048E17A14AE47E13F9A9999999999E13FF5
:10484000CDCCCCCCCCCCE43F333333333333EB3F20
:104850007868FBF7F1FD74A3D3E90023FBF744FE6E
:1048600003460C4618462146FCF7F8F803467B60E1
:10487000CFE07868FBF7E0FD6BA3D3E90023FBF7FB
:1048800033FE03460C4618462146FCF7E7F803467C
:104890007B60BEE07868FBF7CFFD63A3D3E900231C
:1048A000FBF722FE03460C4618462146FCF7D6F8D5
:1048B00003467B60ADE07868FBF7BEFD5AA3D3E901
:1048C0000023FBF711FE03460C4618462146FCF771
:1048D000C5F803467B609CE07868FBF7ADFD52A30A
:1048E000D3E90023FBF700FE03460C461846214699
:1048F000FCF7B4F803467B608BE07868FBF79CFD1F
:1049000049A3D3E90023FBF7EFFD03460C46184605
:104910002146FCF7A3F803467B607AE07868FBF752
:104920008BFD41A3D3E90023FBF7DEFD03460C46D4
:1049300018462146FCF792F803467B6069E07868E8
:10494000FBF77AFD38A3D3E90023FBF7CDFD03463F
:104950000C4618462146FCF781F803467B6058E078
:104960007868FBF769FD30A3D3E90023FBF7BCFDB2
:1049700003460C4618462146FCF770F803467B6058
:1049800047E07868FBF758FD27A3D3E90023FBF73E
:10499000ABFD03460C4618462146FCF75FF803467C
:1049A0007B6036E07868FBF747FD1FA3D3E900235F
:1049B000FBF79AFD03460C4618462146FCF74EF8D5
:1049C00003467B6025E07868FBF736FD16A3D3E944
:1049D0000023FBF789FD03460C4618462146FCF7E9
:1049E0003DF803467B6014E07868FBF725FD10A3D3
:1049F000D3E90023FBF778FD03460C461846214611
:104A0000FCF72CF803467B600B4B00221A7000E089
:104A100000BF3968786803F0BDFD00BF0C37BD46A4
:104A200090BD00BFAFF30080333333333333EB3FFC
:104A3000295C8FC2F528EC3FD30000200000000065
:104A400098B500AF484B1B78002B06D1474B1B781D
:104A50000133DAB2454B1A7009E0434B1B78012B46
:104A600005D1424B1B78013BDAB2404B1A703F4BE9
:104A70001B781846FBF7CEFC37A3D3E90023FBF7DE
:104A800033FD03460C4618462146FBF7E7FF024676
:104A9000374B1A60364B1B681846FBF7CDFC30A32A
:104AA000D3E90023FBF7B0FF0346002B03D02E4BC6
:104AB00001221A700CE02E4B1B684FF000011846C3
:104AC000FCF7D2FA0346002B02D0274BFF221A70C4
:104AD000254B1B78FF2B0FD1264B1B780133DAB205
:104AE000244B1A70234B1B780A2B05D9214B00222B
:104AF0001A701D4B00221A70FDF7CEFD02461E4BA8
:104B00001A60FDF7E1FD02461C4B1A60194B1B7839
:104B1000002B0CD1184B1A68154B1B681946104610
:104B2000FCF7FAF803461A46134B1A6007E0134BDA
:104B30004FF000021A60104B4FF000021A600E4B4B
:104B40001A680E4B1B681946104603F023FD00BF80
:104B500098BD00BFAFF300807B14AE47E17A843F7D
:104B6000AE47E17A14AEEF3FD4000020D50000201C
:104B7000D8000020DC000020E0000020E40000203D
:104B800098B500AF484B1B78002B06D1474B1B78DC
:104B90000133DAB2454B1A7009E0434B1B78012B05
:104BA00005D1424B1B78013BDAB2404B1A703F4BA8
:104BB0001B781846FBF72EFC37A3D3E90023FBF73D
:104BC00093FC03460C4618462146FBF747FF024676
:104BD000374B1A60364B1B681846FBF72DFC30A389
:104BE000D3E90023FBF710FF0346002B03D02E4B25
:104BF00001221A700CE02E4B1B684FF00001184682
:104C0000FCF732FA0346002B02D0274BFF221A7022
:104C1000254B1B78FF2B0FD1264B1B780133DAB2C3
:104C2000244B1A70234B1B780A2B05D9214B0022E9
:104C30001A701D4B00221A70FDF72EFD02461E4B06
:104C40001A60FDF741FD02461C4B1A60194B1B7898
:104C5000002B0CD1184B1A68154B1B6819461046CF
:104C6000FCF75AF803461A46134B1A6007E0134B39
:104C70004FF000021A60104B4FF000021A600E4B0A
:104C80001A680E4B1B681946104603F083FC00BFE0
:104C900098BD00BFAFF300803AB4C876BE9F8A3F8C
:104CA000AE47E17A14AEEF3FE8000020E9000020B3
:104CB000EC000020F0000020F4000020F8000020AC
:104CC00098B500AF484B1B78002B06D1474B1B789B
:104CD0000133DAB2454B1A7009E0434B1B78012BC4
:104CE00005D1424B1B78013BDAB2404B1A703F4B67
:104CF0001B781846FBF78EFB37A3D3E90023FBF79D
:104D0000F3FB03460C4618462146FBF7A7FE024676
:104D1000374B1A60364B1B681846FBF78DFB30A3E8
:104D2000D3E90023FBF770FE0346002B03D02E4B84
:104D300001221A700CE02E4B1B684FF00001184640
:104D4000FCF792F90346002B02D0274BFF221A7082
:104D5000254B1B78FF2B0FD1264B1B780133DAB282
:104D6000244B1A70234B1B780A2B05D9214B0022A8
:104D70001A701D4B00221A70FDF78EFC02461E4B66
:104D80001A60FDF7A1FC02461C4B1A60194B1B78F8
:104D9000002B0CD1184B1A68154B1B68194610468E
:104DA000FBF7BAFF03461A46134B1A6007E0134B92
:104DB0004FF000021A60104B4FF000021A600E4BC9
:104DC0001A680E4B1B681946104603F0E3FB00BF40
:104DD00098BD00BFAFF30080C217265305A3923FD2
:104DE000AE47E17A14AEEF3FFC000020FD0000204A
:104DF0000001002004010020080100200C01002017
:104E000098B500AF484B1B78002B06D1474B1B7859
:104E10000133DAB2454B1A7009E0434B1B78012B82
:104E200005D1424B1B78013BDAB2404B1A703F4B25
:104E30001B781846FBF7EEFA37A3D3E90023FBF7FC
:104E400053FB03460C4618462146FBF707FE024675
:104E5000374B1A60364B1B681846FBF7EDFA30A348
:104E6000D3E90023FBF7D0FD0346002B03D02E4BE4
:104E700001221A700CE02E4B1B684FF000011846FF
:104E8000FCF7F2F80346002B02D0274BFF221A70E2
:104E9000254B1B78FF2B0FD1264B1B780133DAB241
:104EA000244B1A70234B1B780A2B05D9214B002267
:104EB0001A701D4B00221A70FDF7EEFB02461E4BC6
:104EC0001A60FDF701FC02461C4B1A60194B1B7857
:104ED000002B0CD1184B1A68154B1B68194610464D
:104EE000FBF71AFF03461A46134B1A6007E0134BF1
:104EF0004FF000021A60104B4FF000021A600E4B88
:104F00001A680E4B1B681946104603F043FB00BF9E
:104F100098BD00BFAFF30080A323B9FC87F49B3F8B
:104F2000AE47E17A14AEEF3F1001002011010020DE
:104F300014010020180100201C0100202001002085
:104F400090B583B000AF324B1B780133DAB2304BEF
:104F50001A70FDF7A1FB7860FDF7B6FB38602C4BAB
:104F60001B78013B032B3ED801A252F823F000BF6F
:104F7000EF4F0008814F0008A34F0008C54F0008FD
:104F80007868FBF759FA1EA3D3E90023FBF7ACFAC4
:104F900003460C4618462146FBF760FD03467B603E
:104FA00026E07868FBF748FA17A3D3E90023FBF75C
:104FB0009BFA03460C4618462146FBF74FFD034675
:104FC0007B6015E07868FBF737FA0DA3D3E900237F
:104FD000FBF78AFA03460C4618462146FBF73EFDCE
:104FE00003467B6004E00A4B00221A7000E000BF19
:104FF0003968786803F0CEFA00BF0C37BD4690BD23
:105000009A9999999999C93FCDCCCCCCCCCCEC3F0D
:10501000240100200000000090B585B000AFD84BFF
:10502000BB60D84B1B680133D64A1360FDF734FBD5
:10503000F860FDF749FB7860D349F868FCF70AF897
:105040000346002B01D0D04BFB60CE4B1B68013BCD
:10505000952B00F2FE8401A252F823F05B5A00085F
:10506000B5520008C5520008D5520008E5520008A4
:1050700007530008295300084B5300088D530008BC
:10508000AF530008BD530008DF5300080154000867
:10509000235400084554000855540008775400086C
:1050A00087540008A9540008CB540008D9540008BC
:1050B000E9540008F7540008055500081355000886
:1050C000215500082F5500083D5500084B55000894
:1050D00059550008675500087555000883550008A4
:1050E000915500089F550008AD550008BD550008B2
:1050F000CB550008D9550008E7550008F5550008BC
:105100000356000811560008395600084756000893
:10511000555600087756000899560008BB560008F7
:10512000DD560008FF5600080D5700081D570008FF
:105130002B570008395700084757000855570008F3
:1051400063570008715700087F5700088D57000803
:105150009B570008A9570008B7570008C557000813
:10516000D3570008E1570008EF570008FD57000823
:105170000B5800081958000827580008355800082F
:1051800043580008515800085F5800086D5800083F
:105190007B58000889580008AB580008CD58000813
:1051A000015900080F5900081D5900082B59000823
:1051B0003959000847590008555900086359000833
:1051C000715900087F5900088D5900089B59000843
:1051D000A9590008B7590008C5590008D359000853
:1051E000E1590008EF590008FD5900080B5A000862
:1051F000195A0008275A0008355A0008435A00086F
:105200005B5A00085B5A00085B5A00085B5A0008AA
:105210005B5A00085B5A00085B5A00085B5A00089A
:105220005B5A00085B5A00085B5A00085B5A00088A
:105230005B5A00085B5A00085B5A00085B5A00087A
:105240005B5A00085B5A00085B5A00085B5A00086A
:105250005B5A00085B5A00085B5A00085B5A00085A
:105260005B5A00085B5A00085B5A00085B5A00084A
:105270005B5A00085B5A00085B5A00085B5A00083A
:105280005B5A00085B5A00085B5A00085B5A00082A
:105290005B5A00085B5A00085B5A00085B5A00081A
:1052A0005B5A00085B5A00085B5A00085B5A00080A
:1052B0005B5A00084FF00001F868FBF72DFD03462C
:1052C000FB60CBE34FF00001F868FBF725FD0346D8
:1052D000FB60C3E34FF00001F868FBF71DFD0346D8
:1052E000FB60BBE3F868FBF7A7F821A3D3E9002331
:1052F000FBF7FAF803460C4618462146FBF7AEFBCF
:105300000346FB60AAE3F868FBF796F81AA3D3E913
:105310000023FBF7E9F803460C4618462146FBF745
:105320009DFB0346FB6099E3F868FBF785F812A341
:10533000D3E90023FBF7D8F803460C46184621466C
:10534000FBF78CFB0346FB6088E3F868FBF774F817
:1053500007A3D3E90023FBF7C7F803460C4618461A
:105360002146FBF77BFB0346FB6077E3AFF300804E
:10537000666666666666EE3F9A9999999999A93F1D
:105380006666663F2801002000004842F868FBF787
:1053900053F8A3A3D3E90023FBF7A6F803460C4672
:1053A00018462146FBF75AFB0346FB6056E3B968F3
:1053B000F868FBF7B1FC0346FB604FE3F868FBF7C6
:1053C0003BF897A3D3E90023FBF78EF803460C467E
:1053D00018462146FBF742FB0346FB603EE3F868B4
:1053E000FBF72AF890A3D3E90023FBF77DF80346E7
:1053F0000C4618462146FBF731FB0346FB602DE3C4
:10540000F868FBF719F88AA3D3E90023FBF76CF8D7
:1054100003460C4618462146FBF720FB0346FB607B
:105420001CE3F868FBF708F87FA3D3E90023FBF738
:105430005BF803460C4618462146FBF70FFB034674
:10544000FB600BE34FF07C51F868FBF765FC03460B
:10545000FB6003E3F868FAF7EFFF73A3D3E90023D7
:10546000FBF742F803460C4618462146FBF7F6FACE
:105470000346FB60F2E24FF07C51F868FBF74CFC0E
:105480000346FB60EAE2F868FAF7D6FF66A3D3E9C1
:105490000023FBF729F803460C4618462146FBF784
:1054A000DDFA0346FB60D9E2F868FAF7C5FF5EA3B0
:1054B000D3E90023FBF718F803460C4618462146AB
:1054C000FBF7CCFA0346FB60C8E2B968F868FBF763
:1054D00023FC0346FB60C1E24FF07D51F868FBF707
:1054E0001BFC0346FB60B9E2B968F868FBF714FCE3
:1054F0000346FB60B2E2B968F868FBF70DFC0346AF
:10550000FB60ABE2B968F868FBF706FC0346FB609A
:10551000A4E2B968F868FBF7FFFB0346FB609DE275
:10552000B968F868FBF7F8FB0346FB6096E2B968D8
:10553000F868FBF7F1FB0346FB608FE2B968F86897
:10554000FBF7EAFB0346FB6088E2B968F868FBF703
:10555000E3FB0346FB6081E2B968F868FBF7DCFB1C
:105560000346FB607AE2B968F868FBF7D5FB0346AF
:10557000FB6073E2B968F868FBF7CEFB0346FB609B
:105580006CE2B968F868FBF7C7FB0346FB6065E2AD
:10559000B968F868FBF7C0FB0346FB605EE2B968D8
:1055A000F868FBF7B9FB0346FB6057E24FF07D510B
:1055B000F868FBF7B1FB0346FB604FE2B968F86897
:1055C000FBF7AAFB0346FB6048E2B968F868FBF703
:1055D000A3FB0346FB6041E2B968F868FBF79CFB5C
:1055E0000346FB603AE2B968F868FBF795FB0346AF
:1055F000FB6033E2B968F868FBF78EFB0346FB609B
:105600002CE2B968F868FBF787FB0346FB6025E2EC
:10561000B968F868FBF780FB0346FB601EE200BF39
:105620009A9999999999B93F333333333333EB3F8F
:105630009A9999999999C93FB968F868FBF76CFBF1
:105640000346FB600AE2B968F868FBF765FB0346AE
:10565000FB6003E2F868FAF7EFFEA1A3D3E90023A9
:10566000FAF742FF03460C4618462146FBF7F6F9C7
:105670000346FB60F2E1F868FAF7DEFE98A3D3E98F
:105680000023FAF731FF03460C4618462146FBF784
:10569000E5F90346FB60E1E1F868FAF7CDFE92A375
:1056A000D3E90023FAF720FF03460C4618462146AB
:1056B000FBF7D4F90346FB60D0E1F868FAF7BCFECB
:1056C0008BA3D3E90023FAF70FFF03460C461846D5
:1056D0002146FBF7C3F90346FB60BFE1F868FAF720
:1056E000ABFE85A3D3E90023FAF7FEFE03460C4682
:1056F00018462146FBF7B2F90346FB60AEE1B968F4
:10570000F868FBF709FB0346FB60A7E14FF07C510B
:10571000F868FBF701FB0346FB609FE1B968F86896
:10572000FBF7FAFA0346FB6098E1B968F868FBF703
:10573000F3FA0346FB6091E1B968F868FBF7ECFA0D
:105740000346FB608AE1B968F868FBF7E5FA0346AF
:10575000FB6083E1B968F868FBF7DEFA0346FB609B
:105760007CE1B968F868FBF7D7FA0346FB6075E19E
:10577000B968F868FBF7D0FA0346FB606EE1B968D8
:10578000F868FBF7C9FA0346FB6067E1B968F86897
:10579000FBF7C2FA0346FB6060E1B968F868FBF703
:1057A000BBFA0346FB6059E1B968F868FBF7B4FA45
:1057B0000346FB6052E1B968F868FBF7ADFA0346AF
:1057C000FB604BE1B968F868FBF7A6FA0346FB609B
:1057D00044E1B968F868FBF79FFA0346FB603DE1D6
:1057E000B968F868FBF798FA0346FB6036E1B968D8
:1057F000F868FBF791FA0346FB602FE1B968F86897
:10580000FBF78AFA0346FB6028E1B968F868FBF702
:1058100083FA0346FB6021E1B968F868FBF77CFA7C
:105820000346FB601AE1B968F868FBF775FA0346AE
:10583000FB6013E1B968F868FBF76EFA0346FB609A
:105840000CE1B968F868FBF767FA0346FB6005E10D
:10585000B968F868FBF760FA0346FB60FEE0B968D8
:10586000F868FBF759FA0346FB60F7E0B968F86897
:10587000FBF752FA0346FB60F0E0B968F868FBF703
:105880004BFA0346FB60E9E0F868FAF7D5FD18A388
:10589000D3E90023FAF728FE03460C4618462146B2
:1058A000FBF7DCF80346FB60D8E0F868FAF7C4FDC4
:1058B0000FA3D3E90023FAF717FE03460C46184658
:1058C0002146FBF7CBF80346FB60C7E0B968F868F0
:1058D000FBF722FA0346FB60C0E000BFAFF3008095
:1058E000333333333333EB3F9A9999999999B93FCD
:1058F0009A9999999999C93FD7A3703D0AD7EB3FD7
:10590000B968F868FBF708FA0346FB60A6E0B968D7
:10591000F868FBF701FA0346FB609FE0B968F86896
:10592000FBF7FAF90346FB6098E0B968F868FBF703
:10593000F3F90346FB6091E0B968F868FBF7ECF90E
:105940000346FB608AE0B968F868FBF7E5F90346AF
:10595000FB6083E0B968F868FBF7DEF90346FB609B
:105960007CE0B968F868FBF7D7F90346FB6075E09F
:10597000B968F868FBF7D0F90346FB606EE0B968D8
:10598000F868FBF7C9F90346FB6067E0B968F86897
:10599000FBF7C2F90346FB6060E0B968F868FBF703
:1059A000BBF90346FB6059E0B968F868FBF7B4F946
:1059B0000346FB6052E0B968F868FBF7ADF90346AF
:1059C000FB604BE0B968F868FBF7A6F90346FB609B
:1059D00044E0B968F868FBF79FF90346FB603DE0D7
:1059E000B968F868FBF798F90346FB6036E0B968D8
:1059F000F868FBF791F90346FB602FE0B968F86897
:105A0000FBF78AF90346FB6028E0B968F868FBF702
:105A100083F90346FB6021E0B968F868FBF77CF97D
:105A20000346FB601AE0B968F868FBF775F90346AE
:105A3000FB6013E0B968F868FBF76EF90346FB609A
:105A40000CE04FF00001F868FBF766F90346FB60D5
:105A500004E0064B00221A6000E000BF7968F86895
:105A600002F098FD00BF1437BD4690BD280100200C
:105A700090B585B000AFE64BBB60E64B1B680133C9
:105A8000E44A1360FCF708FEF860FCF71DFE78603E
:105A9000E149F868FBF7DEFA0346002B01D0DE4B44
:105AA000FB60DC4B1B68013BA92B00F2CE8501A2F9
:105AB00052F823F0536600085D5D00086F5D000832
:105AC000815D0008935D0008B75D0008DB5D00089C
:105AD0001D5E0008415E0008635E0008715E0008FC
